{
  "_format": "hh-sol-artifact-1",
  "contractName": "Exchange",
  "sourceName": "contracts/Exchange.sol",
  "abi": [
    {
      "inputs": [
        {
          "internalType": "address",
          "name": "_feeAccount",
          "type": "address"
        },
        {
          "internalType": "uint256",
          "name": "_feePercent",
          "type": "uint256"
        }
      ],
      "stateMutability": "nonpayable",
      "type": "constructor"
    },
    {
      "anonymous": false,
      "inputs": [
        {
          "indexed": false,
          "internalType": "address",
          "name": "token",
          "type": "address"
        },
        {
          "indexed": false,
          "internalType": "uint256",
          "name": "amount",
          "type": "uint256"
        },
        {
          "indexed": false,
          "internalType": "uint256",
          "name": "timestamp",
          "type": "uint256"
        }
      ],
      "name": "FlashLoan",
      "type": "event"
    },
    {
      "anonymous": false,
      "inputs": [
        {
          "indexed": false,
          "internalType": "uint256",
          "name": "id",
          "type": "uint256"
        },
        {
          "indexed": false,
          "internalType": "address",
          "name": "user",
          "type": "address"
        },
        {
          "indexed": false,
          "internalType": "address",
          "name": "tokenGet",
          "type": "address"
        },
        {
          "indexed": false,
          "internalType": "uint256",
          "name": "amountGet",
          "type": "uint256"
        },
        {
          "indexed": false,
          "internalType": "address",
          "name": "tokenGive",
          "type": "address"
        },
        {
          "indexed": false,
          "internalType": "uint256",
          "name": "amountGive",
          "type": "uint256"
        },
        {
          "indexed": false,
          "internalType": "uint256",
          "name": "timestamp",
          "type": "uint256"
        }
      ],
      "name": "OrderCancelled",
      "type": "event"
    },
    {
      "anonymous": false,
      "inputs": [
        {
          "indexed": false,
          "internalType": "uint256",
          "name": "id",
          "type": "uint256"
        },
        {
          "indexed": false,
          "internalType": "address",
          "name": "user",
          "type": "address"
        },
        {
          "indexed": false,
          "internalType": "address",
          "name": "tokenGet",
          "type": "address"
        },
        {
          "indexed": false,
          "internalType": "uint256",
          "name": "amountGet",
          "type": "uint256"
        },
        {
          "indexed": false,
          "internalType": "address",
          "name": "tokenGive",
          "type": "address"
        },
        {
          "indexed": false,
          "internalType": "uint256",
          "name": "amountGive",
          "type": "uint256"
        },
        {
          "indexed": false,
          "internalType": "uint256",
          "name": "timestamp",
          "type": "uint256"
        }
      ],
      "name": "OrderCreated",
      "type": "event"
    },
    {
      "anonymous": false,
      "inputs": [
        {
          "indexed": false,
          "internalType": "uint256",
          "name": "id",
          "type": "uint256"
        },
        {
          "indexed": false,
          "internalType": "address",
          "name": "user",
          "type": "address"
        },
        {
          "indexed": false,
          "internalType": "address",
          "name": "tokenGet",
          "type": "address"
        },
        {
          "indexed": false,
          "internalType": "uint256",
          "name": "amountGet",
          "type": "uint256"
        },
        {
          "indexed": false,
          "internalType": "address",
          "name": "tokenGive",
          "type": "address"
        },
        {
          "indexed": false,
          "internalType": "uint256",
          "name": "amountGive",
          "type": "uint256"
        },
        {
          "indexed": false,
          "internalType": "address",
          "name": "creator",
          "type": "address"
        },
        {
          "indexed": false,
          "internalType": "uint256",
          "name": "timestamp",
          "type": "uint256"
        }
      ],
      "name": "OrderFilled",
      "type": "event"
    },
    {
      "anonymous": false,
      "inputs": [
        {
          "indexed": false,
          "internalType": "address",
          "name": "token",
          "type": "address"
        },
        {
          "indexed": false,
          "internalType": "address",
          "name": "user",
          "type": "address"
        },
        {
          "indexed": false,
          "internalType": "uint256",
          "name": "amount",
          "type": "uint256"
        },
        {
          "indexed": false,
          "internalType": "uint256",
          "name": "balance",
          "type": "uint256"
        }
      ],
      "name": "TokensDeposited",
      "type": "event"
    },
    {
      "anonymous": false,
      "inputs": [
        {
          "indexed": false,
          "internalType": "address",
          "name": "token",
          "type": "address"
        },
        {
          "indexed": false,
          "internalType": "address",
          "name": "user",
          "type": "address"
        },
        {
          "indexed": false,
          "internalType": "uint256",
          "name": "amount",
          "type": "uint256"
        },
        {
          "indexed": false,
          "internalType": "uint256",
          "name": "balance",
          "type": "uint256"
        }
      ],
      "name": "TokensWithdrawn",
      "type": "event"
    },
    {
      "inputs": [
        {
          "internalType": "address",
          "name": "_token",
          "type": "address"
        },
        {
          "internalType": "address",
          "name": "_user",
          "type": "address"
        }
      ],
      "name": "activeBalanceOf",
      "outputs": [
        {
          "internalType": "uint256",
          "name": "",
          "type": "uint256"
        }
      ],
      "stateMutability": "view",
      "type": "function"
    },
    {
      "inputs": [
        {
          "internalType": "uint256",
          "name": "_orderId",
          "type": "uint256"
        }
      ],
      "name": "cancelOrder",
      "outputs": [],
      "stateMutability": "nonpayable",
      "type": "function"
    },
    {
      "inputs": [
        {
          "internalType": "address",
          "name": "_token",
          "type": "address"
        },
        {
          "internalType": "uint256",
          "name": "_amount",
          "type": "uint256"
        }
      ],
      "name": "depositToken",
      "outputs": [],
      "stateMutability": "nonpayable",
      "type": "function"
    },
    {
      "inputs": [],
      "name": "feeAccount",
      "outputs": [
        {
          "internalType": "address",
          "name": "",
          "type": "address"
        }
      ],
      "stateMutability": "view",
      "type": "function"
    },
    {
      "inputs": [],
      "name": "feePercent",
      "outputs": [
        {
          "internalType": "uint256",
          "name": "",
          "type": "uint256"
        }
      ],
      "stateMutability": "view",
      "type": "function"
    },
    {
      "inputs": [
        {
          "internalType": "uint256",
          "name": "_orderId",
          "type": "uint256"
        }
      ],
      "name": "fillOrder",
      "outputs": [],
      "stateMutability": "nonpayable",
      "type": "function"
    },
    {
      "inputs": [
        {
          "internalType": "address",
          "name": "_token",
          "type": "address"
        },
        {
          "internalType": "uint256",
          "name": "_amount",
          "type": "uint256"
        },
        {
          "internalType": "bytes",
          "name": "_data",
          "type": "bytes"
        }
      ],
      "name": "flashLoan",
      "outputs": [],
      "stateMutability": "nonpayable",
      "type": "function"
    },
    {
      "inputs": [
        {
          "internalType": "uint256",
          "name": "",
          "type": "uint256"
        }
      ],
      "name": "isOrderCancelled",
      "outputs": [
        {
          "internalType": "bool",
          "name": "",
          "type": "bool"
        }
      ],
      "stateMutability": "view",
      "type": "function"
    },
    {
      "inputs": [
        {
          "internalType": "uint256",
          "name": "",
          "type": "uint256"
        }
      ],
      "name": "isOrderFilled",
      "outputs": [
        {
          "internalType": "bool",
          "name": "",
          "type": "bool"
        }
      ],
      "stateMutability": "view",
      "type": "function"
    },
    {
      "inputs": [
        {
          "internalType": "address",
          "name": "_tokenGet",
          "type": "address"
        },
        {
          "internalType": "uint256",
          "name": "_amountGet",
          "type": "uint256"
        },
        {
          "internalType": "address",
          "name": "_tokenGive",
          "type": "address"
        },
        {
          "internalType": "uint256",
          "name": "_amountGive",
          "type": "uint256"
        }
      ],
      "name": "makeOrder",
      "outputs": [],
      "stateMutability": "nonpayable",
      "type": "function"
    },
    {
      "inputs": [],
      "name": "orderCount",
      "outputs": [
        {
          "internalType": "uint256",
          "name": "",
          "type": "uint256"
        }
      ],
      "stateMutability": "view",
      "type": "function"
    },
    {
      "inputs": [
        {
          "internalType": "uint256",
          "name": "",
          "type": "uint256"
        }
      ],
      "name": "orders",
      "outputs": [
        {
          "internalType": "uint256",
          "name": "id",
          "type": "uint256"
        },
        {
          "internalType": "address",
          "name": "user",
          "type": "address"
        },
        {
          "internalType": "address",
          "name": "tokenGet",
          "type": "address"
        },
        {
          "internalType": "uint256",
          "name": "amountGet",
          "type": "uint256"
        },
        {
          "internalType": "address",
          "name": "tokenGive",
          "type": "address"
        },
        {
          "internalType": "uint256",
          "name": "amountGive",
          "type": "uint256"
        },
        {
          "internalType": "uint256",
          "name": "timestamp",
          "type": "uint256"
        }
      ],
      "stateMutability": "view",
      "type": "function"
    },
    {
      "inputs": [
        {
          "internalType": "address",
          "name": "_token",
          "type": "address"
        },
        {
          "internalType": "address",
          "name": "_user",
          "type": "address"
        }
      ],
      "name": "totalBalanceOf",
      "outputs": [
        {
          "internalType": "uint256",
          "name": "",
          "type": "uint256"
        }
      ],
      "stateMutability": "view",
      "type": "function"
    },
    {
      "inputs": [
        {
          "internalType": "address",
          "name": "_token",
          "type": "address"
        },
        {
          "internalType": "uint256",
          "name": "_amount",
          "type": "uint256"
        }
      ],
      "name": "withdrawToken",
      "outputs": [],
      "stateMutability": "nonpayable",
      "type": "function"
    }
  ],
  "bytecode": "0x608060405234801561001057600080fd5b506040516127c23803806127c283398181016040528101906100329190610119565b816000806101000a81548173ffffffffffffffffffffffffffffffffffffffff021916908373ffffffffffffffffffffffffffffffffffffffff160217905550806001819055505050610159565b600080fd5b600073ffffffffffffffffffffffffffffffffffffffff82169050919050565b60006100b082610085565b9050919050565b6100c0816100a5565b81146100cb57600080fd5b50565b6000815190506100dd816100b7565b92915050565b6000819050919050565b6100f6816100e3565b811461010157600080fd5b50565b600081519050610113816100ed565b92915050565b600080604083850312156101305761012f610080565b5b600061013e858286016100ce565b925050602061014f85828601610104565b9150509250929050565b61265a806101686000396000f3fe608060405234801561001057600080fd5b50600436106100ea5760003560e01c806384d10bff1161008c578063a85c38ef11610066578063a85c38ef14610235578063cd7857961461026b578063d425cb6f1461029b578063e0232b42146102cb576100ea565b806384d10bff146101cd5780639a5c90aa146101fd5780639e281a9814610219576100ea565b8063514fcac7116100c8578063514fcac71461015957806365e17c9d1461017557806367b830ad146101935780637fd6f15c146101af576100ea565b80631b1d1c81146100ef5780632453ffa81461011f578063338b5dea1461013d575b600080fd5b610109600480360381019061010491906118ca565b6102e7565b6040516101169190611912565b60405180910390f35b610127610307565b604051610134919061193c565b60405180910390f35b610157600480360381019061015291906119b5565b61030d565b005b610173600480360381019061016e91906118ca565b61051c565b005b61017d6107b1565b60405161018a9190611a04565b60405180910390f35b6101ad60048036038101906101a891906118ca565b6107d5565b005b6101b7610a35565b6040516101c4919061193c565b60405180910390f35b6101e760048036038101906101e29190611a1f565b610a3b565b6040516101f4919061193c565b60405180910390f35b61021760048036038101906102129190611a5f565b610ac2565b005b610233600480360381019061022e91906119b5565b610da4565b005b61024f600480360381019061024a91906118ca565b611011565b6040516102629796959493929190611ac6565b60405180910390f35b61028560048036038101906102809190611a1f565b6110b3565b604051610292919061193c565b60405180910390f35b6102b560048036038101906102b091906118ca565b61113a565b6040516102c29190611912565b60405180910390f35b6102e560048036038101906102e09190611c7b565b61115a565b005b60046020528060005260406000206000915054906101000a900460ff1681565b60025481565b8173ffffffffffffffffffffffffffffffffffffffff166323b872dd3330846040518463ffffffff1660e01b815260040161034a93929190611cea565b6020604051808303816000875af1158015610369573d6000803e3d6000fd5b505050506040513d601f19601f8201168201806040525081019061038d9190611d4d565b6103cc576040517f08c379a00000000000000000000000000000000000000000000000000000000081526004016103c390611dd7565b60405180910390fd5b80600660008473ffffffffffffffffffffffffffffffffffffffff1673ffffffffffffffffffffffffffffffffffffffff16815260200190815260200160002060003373ffffffffffffffffffffffffffffffffffffffff1673ffffffffffffffffffffffffffffffffffffffff16815260200190815260200160002060008282546104589190611e26565b925050819055507f9d572f819ae4f4b4839dda54bcb4cc8d7c2f0a67807db864716b20eafb515359823383600660008773ffffffffffffffffffffffffffffffffffffffff1673ffffffffffffffffffffffffffffffffffffffff16815260200190815260200160002060003373ffffffffffffffffffffffffffffffffffffffff1673ffffffffffffffffffffffffffffffffffffffff168152602001908152602001600020546040516105109493929190611e5a565b60405180910390a15050565b600060036000838152602001908152602001600020905081816000015414610579576040517f08c379a000000000000000000000000000000000000000000000000000000000815260040161057090611eeb565b60405180910390fd5b3373ffffffffffffffffffffffffffffffffffffffff168160010160009054906101000a900473ffffffffffffffffffffffffffffffffffffffff1673ffffffffffffffffffffffffffffffffffffffff161461060b576040517f08c379a000000000000000000000000000000000000000000000000000000000815260040161060290611f57565b60405180910390fd5b60016004600084815260200190815260200160002060006101000a81548160ff0219169083151502179055508060050154600760008360040160009054906101000a900473ffffffffffffffffffffffffffffffffffffffff1673ffffffffffffffffffffffffffffffffffffffff1673ffffffffffffffffffffffffffffffffffffffff16815260200190815260200160002060008360010160009054906101000a900473ffffffffffffffffffffffffffffffffffffffff1673ffffffffffffffffffffffffffffffffffffffff1673ffffffffffffffffffffffffffffffffffffffff168152602001908152602001600020600082825461070f9190611f77565b925050819055507f0fc466a139855d3b21f9eb9dfdadd9dfdaf9b58bd400756b26083b7077055e278160000154338360020160009054906101000a900473ffffffffffffffffffffffffffffffffffffffff1684600301548560040160009054906101000a900473ffffffffffffffffffffffffffffffffffffffff168660050154426040516107a59796959493929190611ac6565b60405180910390a15050565b60008054906101000a900473ffffffffffffffffffffffffffffffffffffffff1681565b6000811180156107e757506002548111155b610826576040517f08c379a000000000000000000000000000000000000000000000000000000000815260040161081d90611eeb565b60405180910390fd5b6005600082815260200190815260200160002060009054906101000a900460ff1615610887576040517f08c379a000000000000000000000000000000000000000000000000000000000815260040161087e9061201d565b60405180910390fd5b6004600082815260200190815260200160002060009054906101000a900460ff16156108e8576040517f08c379a00000000000000000000000000000000000000000000000000000000081526004016108df906120af565b60405180910390fd5b600060036000838152602001908152602001600020905080600301546109328260020160009054906101000a900473ffffffffffffffffffffffffffffffffffffffff16336110b3565b61093c9190611e26565b61096a8260020160009054906101000a900473ffffffffffffffffffffffffffffffffffffffff1633610a3b565b10156109ab576040517f08c379a00000000000000000000000000000000000000000000000000000000081526004016109a29061211b565b60405180910390fd5b610a3181600001548260010160009054906101000a900473ffffffffffffffffffffffffffffffffffffffff168360020160009054906101000a900473ffffffffffffffffffffffffffffffffffffffff1684600301548560040160009054906101000a900473ffffffffffffffffffffffffffffffffffffffff16866005015461144a565b5050565b60015481565b6000600660008473ffffffffffffffffffffffffffffffffffffffff1673ffffffffffffffffffffffffffffffffffffffff16815260200190815260200160002060008373ffffffffffffffffffffffffffffffffffffffff1673ffffffffffffffffffffffffffffffffffffffff16815260200190815260200160002054905092915050565b80610acd83336110b3565b610ad79190611e26565b610ae18333610a3b565b1015610b22576040517f08c379a0000000000000000000000000000000000000000000000000000000008152600401610b199061211b565b60405180910390fd5b60026000815480929190610b359061213b565b91905055506040518060e0016040528060025481526020013373ffffffffffffffffffffffffffffffffffffffff1681526020018573ffffffffffffffffffffffffffffffffffffffff1681526020018481526020018373ffffffffffffffffffffffffffffffffffffffff168152602001828152602001428152506003600060025481526020019081526020016000206000820151816000015560208201518160010160006101000a81548173ffffffffffffffffffffffffffffffffffffffff021916908373ffffffffffffffffffffffffffffffffffffffff16021790555060408201518160020160006101000a81548173ffffffffffffffffffffffffffffffffffffffff021916908373ffffffffffffffffffffffffffffffffffffffff1602179055506060820151816003015560808201518160040160006101000a81548173ffffffffffffffffffffffffffffffffffffffff021916908373ffffffffffffffffffffffffffffffffffffffff16021790555060a0820151816005015560c0820151816006015590505080600760008473ffffffffffffffffffffffffffffffffffffffff1673ffffffffffffffffffffffffffffffffffffffff16815260200190815260200160002060003373ffffffffffffffffffffffffffffffffffffffff1673ffffffffffffffffffffffffffffffffffffffff1681526020019081526020016000206000828254610d529190611e26565b925050819055507ff4e94e11847dd5a076a1f8bc24ec98dfa58292de438d62656742b833fe022ec0600254338686868642604051610d969796959493929190611ac6565b60405180910390a150505050565b80610daf83336110b3565b610db98433610a3b565b610dc39190611f77565b1015610e04576040517f08c379a0000000000000000000000000000000000000000000000000000000008152600401610dfb9061211b565b60405180910390fd5b80600660008473ffffffffffffffffffffffffffffffffffffffff1673ffffffffffffffffffffffffffffffffffffffff16815260200190815260200160002060003373ffffffffffffffffffffffffffffffffffffffff1673ffffffffffffffffffffffffffffffffffffffff1681526020019081526020016000206000828254610e909190611f77565b925050819055507f6b83b455c317523498e4e86849438d4356ad79ba6b355a5e6d5bc05eca6c780f823383600660008773ffffffffffffffffffffffffffffffffffffffff1673ffffffffffffffffffffffffffffffffffffffff16815260200190815260200160002060003373ffffffffffffffffffffffffffffffffffffffff1673ffffffffffffffffffffffffffffffffffffffff16815260200190815260200160002054604051610f489493929190611e5a565b60405180910390a18173ffffffffffffffffffffffffffffffffffffffff1663a9059cbb33836040518363ffffffff1660e01b8152600401610f8b929190612183565b6020604051808303816000875af1158015610faa573d6000803e3d6000fd5b505050506040513d601f19601f82011682018060405250810190610fce9190611d4d565b61100d576040517f08c379a0000000000000000000000000000000000000000000000000000000008152600401611004906121f8565b60405180910390fd5b5050565b60036020528060005260406000206000915090508060000154908060010160009054906101000a900473ffffffffffffffffffffffffffffffffffffffff16908060020160009054906101000a900473ffffffffffffffffffffffffffffffffffffffff16908060030154908060040160009054906101000a900473ffffffffffffffffffffffffffffffffffffffff16908060050154908060060154905087565b6000600760008473ffffffffffffffffffffffffffffffffffffffff1673ffffffffffffffffffffffffffffffffffffffff16815260200190815260200160002060008373ffffffffffffffffffffffffffffffffffffffff1673ffffffffffffffffffffffffffffffffffffffff16815260200190815260200160002054905092915050565b60056020528060005260406000206000915054906101000a900460ff1681565b60008373ffffffffffffffffffffffffffffffffffffffff166370a08231306040518263ffffffff1660e01b81526004016111959190611a04565b602060405180830381865afa1580156111b2573d6000803e3d6000fd5b505050506040513d601f19601f820116820180604052508101906111d6919061222d565b90506000811161121b576040517f08c379a0000000000000000000000000000000000000000000000000000000008152600401611212906122cc565b60405180910390fd5b8373ffffffffffffffffffffffffffffffffffffffff1663a9059cbb33856040518363ffffffff1660e01b8152600401611256929190612183565b6020604051808303816000875af1158015611275573d6000803e3d6000fd5b505050506040513d601f19601f820116820180604052508101906112999190611d4d565b6112d8576040517f08c379a00000000000000000000000000000000000000000000000000000000081526004016112cf9061235e565b60405180910390fd5b3373ffffffffffffffffffffffffffffffffffffffff1663958fa2808585856040518463ffffffff1660e01b8152600401611315939291906123fd565b600060405180830381600087803b15801561132f57600080fd5b505af1158015611343573d6000803e3d6000fd5b5050505060008473ffffffffffffffffffffffffffffffffffffffff166370a08231306040518263ffffffff1660e01b81526004016113829190611a04565b602060405180830381865afa15801561139f573d6000803e3d6000fd5b505050506040513d601f19601f820116820180604052508101906113c3919061222d565b905081811015611408576040517f08c379a00000000000000000000000000000000000000000000000000000000081526004016113ff906124ad565b60405180910390fd5b7f31aaad38f00845a242d16ae90d7bd72fc68f0e22581470f9dc0de241210c288685854260405161143b939291906124cd565b60405180910390a15050505050565b600060646001548561145c9190612504565b6114669190612575565b905080846114749190611e26565b600660008773ffffffffffffffffffffffffffffffffffffffff1673ffffffffffffffffffffffffffffffffffffffff16815260200190815260200160002060003373ffffffffffffffffffffffffffffffffffffffff1673ffffffffffffffffffffffffffffffffffffffff16815260200190815260200160002060008282546114ff9190611f77565b9250508190555083600660008773ffffffffffffffffffffffffffffffffffffffff1673ffffffffffffffffffffffffffffffffffffffff16815260200190815260200160002060008873ffffffffffffffffffffffffffffffffffffffff1673ffffffffffffffffffffffffffffffffffffffff16815260200190815260200160002060008282546115929190611e26565b9250508190555080600660008773ffffffffffffffffffffffffffffffffffffffff1673ffffffffffffffffffffffffffffffffffffffff16815260200190815260200160002060008060009054906101000a900473ffffffffffffffffffffffffffffffffffffffff1673ffffffffffffffffffffffffffffffffffffffff1673ffffffffffffffffffffffffffffffffffffffff16815260200190815260200160002060008282546116469190611e26565b9250508190555081600660008573ffffffffffffffffffffffffffffffffffffffff1673ffffffffffffffffffffffffffffffffffffffff16815260200190815260200160002060008873ffffffffffffffffffffffffffffffffffffffff1673ffffffffffffffffffffffffffffffffffffffff16815260200190815260200160002060008282546116d99190611f77565b9250508190555081600660008573ffffffffffffffffffffffffffffffffffffffff1673ffffffffffffffffffffffffffffffffffffffff16815260200190815260200160002060003373ffffffffffffffffffffffffffffffffffffffff1673ffffffffffffffffffffffffffffffffffffffff168152602001908152602001600020600082825461176c9190611e26565b9250508190555081600760008573ffffffffffffffffffffffffffffffffffffffff1673ffffffffffffffffffffffffffffffffffffffff16815260200190815260200160002060008873ffffffffffffffffffffffffffffffffffffffff1673ffffffffffffffffffffffffffffffffffffffff16815260200190815260200160002060008282546117ff9190611f77565b925050819055507f3f18c6d086d994230a01522d5756546e531baf4669ec8aea8cb68180b184c3848733878787878c426040516118439897969594939291906125a6565b60405180910390a160016005600089815260200190815260200160002060006101000a81548160ff02191690831515021790555050505050505050565b6000604051905090565b600080fd5b600080fd5b6000819050919050565b6118a781611894565b81146118b257600080fd5b50565b6000813590506118c48161189e565b92915050565b6000602082840312156118e0576118df61188a565b5b60006118ee848285016118b5565b91505092915050565b60008115159050919050565b61190c816118f7565b82525050565b60006020820190506119276000830184611903565b92915050565b61193681611894565b82525050565b6000602082019050611951600083018461192d565b92915050565b600073ffffffffffffffffffffffffffffffffffffffff82169050919050565b600061198282611957565b9050919050565b61199281611977565b811461199d57600080fd5b50565b6000813590506119af81611989565b92915050565b600080604083850312156119cc576119cb61188a565b5b60006119da858286016119a0565b92505060206119eb858286016118b5565b9150509250929050565b6119fe81611977565b82525050565b6000602082019050611a1960008301846119f5565b92915050565b60008060408385031215611a3657611a3561188a565b5b6000611a44858286016119a0565b9250506020611a55858286016119a0565b9150509250929050565b60008060008060808587031215611a7957611a7861188a565b5b6000611a87878288016119a0565b9450506020611a98878288016118b5565b9350506040611aa9878288016119a0565b9250506060611aba878288016118b5565b91505092959194509250565b600060e082019050611adb600083018a61192d565b611ae860208301896119f5565b611af560408301886119f5565b611b02606083018761192d565b611b0f60808301866119f5565b611b1c60a083018561192d565b611b2960c083018461192d565b98975050505050505050565b600080fd5b600080fd5b6000601f19601f8301169050919050565b7f4e487b7100000000000000000000000000000000000000000000000000000000600052604160045260246000fd5b611b8882611b3f565b810181811067ffffffffffffffff82111715611ba757611ba6611b50565b5b80604052505050565b6000611bba611880565b9050611bc68282611b7f565b919050565b600067ffffffffffffffff821115611be657611be5611b50565b5b611bef82611b3f565b9050602081019050919050565b82818337600083830152505050565b6000611c1e611c1984611bcb565b611bb0565b905082815260208101848484011115611c3a57611c39611b3a565b5b611c45848285611bfc565b509392505050565b600082601f830112611c6257611c61611b35565b5b8135611c72848260208601611c0b565b91505092915050565b600080600060608486031215611c9457611c9361188a565b5b6000611ca2868287016119a0565b9350506020611cb3868287016118b5565b925050604084013567ffffffffffffffff811115611cd457611cd361188f565b5b611ce086828701611c4d565b9150509250925092565b6000606082019050611cff60008301866119f5565b611d0c60208301856119f5565b611d19604083018461192d565b949350505050565b611d2a816118f7565b8114611d3557600080fd5b50565b600081519050611d4781611d21565b92915050565b600060208284031215611d6357611d6261188a565b5b6000611d7184828501611d38565b91505092915050565b600082825260208201905092915050565b7f45786368616e676520546f6b656e207472616e73666572206661696c65640000600082015250565b6000611dc1601e83611d7a565b9150611dcc82611d8b565b602082019050919050565b60006020820190508181036000830152611df081611db4565b9050919050565b7f4e487b7100000000000000000000000000000000000000000000000000000000600052601160045260246000fd5b6000611e3182611894565b9150611e3c83611894565b9250828201905080821115611e5457611e53611df7565b5b92915050565b6000608082019050611e6f60008301876119f5565b611e7c60208301866119f5565b611e89604083018561192d565b611e96606083018461192d565b95945050505050565b7f45786368616e67653a204f7264657220646f6573206e6f742065786973740000600082015250565b6000611ed5601e83611d7a565b9150611ee082611e9f565b602082019050919050565b60006020820190508181036000830152611f0481611ec8565b9050919050565b7f45786368616e67653a204e6f7420746865206f776e6572000000000000000000600082015250565b6000611f41601783611d7a565b9150611f4c82611f0b565b602082019050919050565b60006020820190508181036000830152611f7081611f34565b9050919050565b6000611f8282611894565b9150611f8d83611894565b9250828203905081811115611fa557611fa4611df7565b5b92915050565b7f45786368616e67653a204f726465722068617320616c7265616479206265656e60008201527f2066696c6c656400000000000000000000000000000000000000000000000000602082015250565b6000612007602783611d7a565b915061201282611fab565b604082019050919050565b6000602082019050818103600083015261203681611ffa565b9050919050565b7f45786368616e67653a204f7264657220686173206265656e2063616e63656c6c60008201527f6564000000000000000000000000000000000000000000000000000000000000602082015250565b6000612099602283611d7a565b91506120a48261203d565b604082019050919050565b600060208201905081810360008301526120c88161208c565b9050919050565b7f45786368616e67653a20496e73756666696369656e742062616c616e63650000600082015250565b6000612105601e83611d7a565b9150612110826120cf565b602082019050919050565b60006020820190508181036000830152612134816120f8565b9050919050565b600061214682611894565b91507fffffffffffffffffffffffffffffffffffffffffffffffffffffffffffffffff820361217857612177611df7565b5b600182019050919050565b600060408201905061219860008301856119f5565b6121a5602083018461192d565b9392505050565b7f45786368616e67653a20546f6b656e207472616e73666572206661696c656400600082015250565b60006121e2601f83611d7a565b91506121ed826121ac565b602082019050919050565b60006020820190508181036000830152612211816121d5565b9050919050565b6000815190506122278161189e565b92915050565b6000602082840312156122435761224261188a565b5b600061225184828501612218565b91505092915050565b7f466c6173684c6f616e50726f76696465723a20496e73756666696369656e742060008201527f66756e647320746f206c6f616e00000000000000000000000000000000000000602082015250565b60006122b6602d83611d7a565b91506122c18261225a565b604082019050919050565b600060208201905081810360008301526122e5816122a9565b9050919050565b7f466c6173684c6f616e50726f76696465723a205472616e73666572206661696c60008201527f6564000000000000000000000000000000000000000000000000000000000000602082015250565b6000612348602283611d7a565b9150612353826122ec565b604082019050919050565b600060208201905081810360008301526123778161233b565b9050919050565b600081519050919050565b600082825260208201905092915050565b60005b838110156123b857808201518184015260208101905061239d565b60008484015250505050565b60006123cf8261237e565b6123d98185612389565b93506123e981856020860161239a565b6123f281611b3f565b840191505092915050565b600060608201905061241260008301866119f5565b61241f602083018561192d565b818103604083015261243181846123c4565b9050949350505050565b7f466c6173684c6f616e50726f76696465723a2046756e6473206e6f742072656360008201527f6569766564000000000000000000000000000000000000000000000000000000602082015250565b6000612497602583611d7a565b91506124a28261243b565b604082019050919050565b600060208201905081810360008301526124c68161248a565b9050919050565b60006060820190506124e260008301866119f5565b6124ef602083018561192d565b6124fc604083018461192d565b949350505050565b600061250f82611894565b915061251a83611894565b925082820261252881611894565b9150828204841483151761253f5761253e611df7565b5b5092915050565b7f4e487b7100000000000000000000000000000000000000000000000000000000600052601260045260246000fd5b600061258082611894565b915061258b83611894565b92508261259b5761259a612546565b5b828204905092915050565b6000610100820190506125bc600083018b61192d565b6125c9602083018a6119f5565b6125d660408301896119f5565b6125e3606083018861192d565b6125f060808301876119f5565b6125fd60a083018661192d565b61260a60c08301856119f5565b61261760e083018461192d565b999850505050505050505056fea2646970667358221220ecbf62fc6dbe0507c62056834b0303fc1dbb0a2207e87daf620ee53fb890466e64736f6c634300081c0033",
  "linkReferences": {},
  "deployedLinkReferences": {}
}